{
  "_format": "hh-sol-artifact-1",
  "contractName": "Vending_Machine",
  "sourceName": "contracts/Vending_Machine.sol",
  "abi": [
    {
      "inputs": [],
      "stateMutability": "nonpayable",
      "type": "constructor"
    },
    {
      "inputs": [
        {
          "internalType": "address",
          "name": "",
          "type": "address"
        }
      ],
      "name": "candyBalances",
      "outputs": [
        {
          "internalType": "uint256",
          "name": "",
          "type": "uint256"
        }
      ],
      "stateMutability": "view",
      "type": "function"
    },
    {
      "inputs": [],
      "name": "getVMBalance",
      "outputs": [
        {
          "internalType": "uint256",
          "name": "",
          "type": "uint256"
        }
      ],
      "stateMutability": "view",
      "type": "function"
    },
    {
      "inputs": [],
      "name": "owner",
      "outputs": [
        {
          "internalType": "address",
          "name": "",
          "type": "address"
        }
      ],
      "stateMutability": "view",
      "type": "function"
    },
    {
      "inputs": [
        {
          "internalType": "uint256",
          "name": "amount",
          "type": "uint256"
        }
      ],
      "name": "purchase",
      "outputs": [],
      "stateMutability": "payable",
      "type": "function"
    },
    {
      "inputs": [
        {
          "internalType": "uint256",
          "name": "amount",
          "type": "uint256"
        }
      ],
      "name": "restock",
      "outputs": [],
      "stateMutability": "nonpayable",
      "type": "function"
    }
  ],
  "bytecode": "0x608060405234801561001057600080fd5b50336000806101000a81548173ffffffffffffffffffffffffffffffffffffffff021916908373ffffffffffffffffffffffffffffffffffffffff1602179055506064600160003073ffffffffffffffffffffffffffffffffffffffff1673ffffffffffffffffffffffffffffffffffffffff1681526020019081526020016000208190555061083c806100a56000396000f3fe60806040526004361061004a5760003560e01c8063612832e71461004f5780638da5cb5b1461007a578063c21a702a146100a5578063efef39a1146100ce578063f6a7e886146100ea575b600080fd5b34801561005b57600080fd5b50610064610127565b6040516100719190610596565b60405180910390f35b34801561008657600080fd5b5061008f61016e565b60405161009c919061051b565b60405180910390f35b3480156100b157600080fd5b506100cc60048036038101906100c7919061046b565b610192565b005b6100e860048036038101906100e3919061046b565b610279565b005b3480156100f657600080fd5b50610111600480360381019061010c9190610442565b610400565b60405161011e9190610596565b60405180910390f35b6000600160003073ffffffffffffffffffffffffffffffffffffffff1673ffffffffffffffffffffffffffffffffffffffff16815260200190815260200160002054905090565b60008054906101000a900473ffffffffffffffffffffffffffffffffffffffff1681565b3373ffffffffffffffffffffffffffffffffffffffff1660008054906101000a900473ffffffffffffffffffffffffffffffffffffffff1673ffffffffffffffffffffffffffffffffffffffff1614610220576040517f08c379a000000000000000000000000000000000000000000000000000000000815260040161021790610556565b60405180910390fd5b80600160003073ffffffffffffffffffffffffffffffffffffffff1673ffffffffffffffffffffffffffffffffffffffff168152602001908152602001600020600082825461026f91906105c2565b9250508190555050565b671bc16d674ec800008161028d9190610618565b3410156102cf576040517f08c379a00000000000000000000000000000000000000000000000000000000081526004016102c690610576565b60405180910390fd5b80600160003073ffffffffffffffffffffffffffffffffffffffff1673ffffffffffffffffffffffffffffffffffffffff168152602001908152602001600020541015610351576040517f08c379a000000000000000000000000000000000000000000000000000000000815260040161034890610536565b60405180910390fd5b80600160003073ffffffffffffffffffffffffffffffffffffffff1673ffffffffffffffffffffffffffffffffffffffff16815260200190815260200160002060008282546103a09190610672565b9250508190555080600160003373ffffffffffffffffffffffffffffffffffffffff1673ffffffffffffffffffffffffffffffffffffffff16815260200190815260200160002060008282546103f691906105c2565b9250508190555050565b60016020528060005260406000206000915090505481565b600081359050610427816107d8565b92915050565b60008135905061043c816107ef565b92915050565b60006020828403121561045457600080fd5b600061046284828501610418565b91505092915050565b60006020828403121561047d57600080fd5b600061048b8482850161042d565b91505092915050565b61049d816106a6565b82525050565b60006104b06020836105b1565b91506104bb82610711565b602082019050919050565b60006104d36023836105b1565b91506104de8261073a565b604082019050919050565b60006104f6602a836105b1565b915061050182610789565b604082019050919050565b610515816106d8565b82525050565b60006020820190506105306000830184610494565b92915050565b6000602082019050818103600083015261054f816104a3565b9050919050565b6000602082019050818103600083015261056f816104c6565b9050919050565b6000602082019050818103600083015261058f816104e9565b9050919050565b60006020820190506105ab600083018461050c565b92915050565b600082825260208201905092915050565b60006105cd826106d8565b91506105d8836106d8565b9250827fffffffffffffffffffffffffffffffffffffffffffffffffffffffffffffffff0382111561060d5761060c6106e2565b5b828201905092915050565b6000610623826106d8565b915061062e836106d8565b9250817fffffffffffffffffffffffffffffffffffffffffffffffffffffffffffffffff0483118215151615610667576106666106e2565b5b828202905092915050565b600061067d826106d8565b9150610688836106d8565b92508282101561069b5761069a6106e2565b5b828203905092915050565b60006106b1826106b8565b9050919050565b600073ffffffffffffffffffffffffffffffffffffffff82169050919050565b6000819050919050565b7f4e487b7100000000000000000000000000000000000000000000000000000000600052601160045260246000fd5b7f4e6f7420656e6f7567682063616e647920696e207468652073746f7261676521600082015250565b7f4f6e6c79206f776e65722063616e20726573746f636b20746865206d6163686960008201527f6e65210000000000000000000000000000000000000000000000000000000000602082015250565b7f596f75206d75737420706179206174206c656173742074776f2065746865722060008201527f7065722063616e64792100000000000000000000000000000000000000000000602082015250565b6107e1816106a6565b81146107ec57600080fd5b50565b6107f8816106d8565b811461080357600080fd5b5056fea2646970667358221220245d5fa07c0b54d2af774fcf483d03847ee235d85ceb052c5ee602cde9af174f64736f6c63430008030033",
  "linkReferences": {},
  "deployedLinkReferences": {}
}